{
    "contractName": "Swapper",
    "abi": [
        {
            "inputs": [],
            "name": "WETH",
            "outputs": [
                {
                    "internalType": "address",
                    "name": "",
                    "type": "address"
                }
            ],
            "stateMutability": "view",
            "type": "function"
        },
        {
            "inputs": [],
            "name": "factory",
            "outputs": [
                {
                    "internalType": "address",
                    "name": "",
                    "type": "address"
                }
            ],
            "stateMutability": "view",
            "type": "function"
        },
        {
            "inputs": [
                {
                    "internalType": "uint256",
                    "name": "amountOut",
                    "type": "uint256"
                },
                {
                    "internalType": "address[]",
                    "name": "path",
                    "type": "address[]"
                },
                {
                    "internalType": "address",
                    "name": "to",
                    "type": "address"
                },
                {
                    "internalType": "uint256",
                    "name": "deadline",
                    "type": "uint256"
                }
            ],
            "name": "swapETHForExactTokens",
            "outputs": [
                {
                    "internalType": "uint256[]",
                    "name": "amounts",
                    "type": "uint256[]"
                }
            ],
            "stateMutability": "payable",
            "type": "function"
        }
    ],
    "bytecode": "60c08060405234603357610cf49081610038823960805181818160f401526109cc015260a05181818160c70152610a0d0152f35b5f80fdfe6080806040526004361015610012575f80fd5b5f905f3560e01c908163ad5c4648146109fb57508063c45a0155146109b75763fb3bdb411461003f575f80fd5b608036600319011261060d576024359067ffffffffffffffff821161060d573660238301121561060d57816004013567ffffffffffffffff811161060d5760248301923660248360051b8301011161060d57604435916001600160a01b038316830361060d574260643510610979578015610965576100bd85610a3c565b6001600160a01b037f00000000000000000000000000000000000000000000000000000000000000008116969116869003610920577f00000000000000000000000000000000000000000000000000000000000000009161011f368284610a9e565b9660028851106108db5787519461014e61013887610a86565b966101466040519889610a50565b808852610a86565b602087019990601f1901368b3786515f19810190811161079b576101756004359189610b06565b5280515f19810190811161079b57805b61066457505061019486610af9565b513410610611576101a486610af9565b51823b1561060d575f60049160405192838092630d0e30db60e41b8252875af18015610602576105ed575b506101d984610a3c565b9083600110156105d9576020916101f560446101fc9301610a3c565b9087610b27565b604461020788610af9565b5160405163a9059cbb60e01b81526001600160a01b0390931660048401526024830152909283919082908b905af19081156105ce57879161058f575b501561057b5790610258919694963691610a9e565b946020925f9190865b88515f1981019081116105675781101561041e576001600160a01b03610287828b610b06565b5116600182019081831161040a576001600160a01b036102a7838d610b06565b5116906102bf6102b78383610bf1565b509386610b06565b51926001600160a01b03168103610403578a92905b8c5160011981019081116103e5578510156103f957600285018086116103e5576103158e61030c6103269360018060a01b0392610b06565b5116858c610b27565b935b6001600160a01b03928b610b27565b1690604051936103368b86610a50565b8c85528a850189368237833b156103e15760a48e9594939286926040519889978896879463022c0d9f60e01b86526004860152602485015260018060a01b03166044840152608060648401525180918160848501528484015e8181018301849052601f01601f191681010301925af180156103d6579089916103bd575b5050600101610261565b816103c791610a50565b6103d257875f6103b3565b8780fd5b6040513d8b823e3d90fd5b8d80fd5b634e487b7160e01b8d52601160045260248dfd5b6103268793610317565b8a906102d4565b634e487b7160e01b8a52601160045260248afd5b5093925050849061042e84610af9565b513411610479575b505091909260405193838594850191818652518092526040850193925b82811061046257505050500390f35b835185528695509381019392810192600101610453565b819061048e61048786610af9565b5134610b1a565b9060405161049c8682610a50565b838152858101913683375191335af13d15610562573d67ffffffffffffffff811161054e57604051906104d8601f8201601f1916850183610a50565b815285833d92013e5b156104ed578385610436565b6084906040519062461bcd60e51b82526004820152603460248201527f5472616e7366657248656c7065723a3a736166655472616e736665724554483a60448201527308115512081d1c985b9cd9995c8819985a5b195960621b6064820152fd5b634e487b7160e01b86526041600452602486fd5b6104e1565b634e487b7160e01b89526011600452602489fd5b634e487b7160e01b86526001600452602486fd5b90506020813d6020116105c6575b816105aa60209383610a50565b810103126105c2575180151581036105c2575f610243565b8680fd5b3d915061059d565b6040513d89823e3d90fd5b634e487b7160e01b89526032600452602489fd5b6105fa9198505f90610a50565b5f965f6101cf565b6040513d5f823e3d90fd5b5f80fd5b60405162461bcd60e51b815260206004820152602560248201527f50616e63616b65526f757465723a204558434553534956455f494e5055545f416044820152641353d5539560da1b6064820152608490fd5b5f19810181811161079b576001600160a01b036106818285610b06565b511660046001600160a01b036106978587610b06565b51169160608b6106c86106aa8685610bf1565b50956106b7818685610b27565b506001600160a01b03928590610b27565b1660405193848092630240bc6b60e21b82525afa918215610602575f905f9361087d575b506001600160701b03928316939216916001600160a01b03160361087857905b610716848c610b06565b518015610820578215801580610817575b156107c3578184029384048214171561079b57612710830292808404612710149015171561079b5761075891610b1a565b906126f78202918083046126f7149015171561079b5781156107af5704906001820180921161079b5761078b908a610b06565b52801561079b575f190180610185565b634e487b7160e01b5f52601160045260245ffd5b634e487b7160e01b5f52601260045260245ffd5b60405162461bcd60e51b815260206004820152602660248201527f50616e63616b654c6962726172793a20494e53554646494349454e545f4c495160448201526555494449545960d01b6064820152608490fd5b50821515610727565b60405162461bcd60e51b815260206004820152602a60248201527f50616e63616b654c6962726172793a20494e53554646494349454e545f4f555460448201526914155517d05353d5539560b21b6064820152608490fd5b61070c565b9250506060823d82116108d3575b8161089860609383610a50565b8101031261060d576108a982610bdd565b60406108b760208501610bdd565b93015163ffffffff81160361060d576001600160701b036106ec565b3d915061088b565b60405162461bcd60e51b815260206004820152601c60248201527f50616e63616b654c6962726172793a20494e56414c49445f50415448000000006044820152606490fd5b60405162461bcd60e51b815260206004820152601b60248201527f50616e63616b65526f757465723a20494e56414c49445f5041544800000000006044820152606490fd5b634e487b7160e01b5f52603260045260245ffd5b60405162461bcd60e51b815260206004820152601660248201527514185b98d85ad9549bdd5d195c8e881156141254915160521b6044820152606490fd5b3461060d575f36600319011261060d576040517f00000000000000000000000000000000000000000000000000000000000000006001600160a01b03168152602090f35b3461060d575f36600319011261060d577f00000000000000000000000000000000000000000000000000000000000000006001600160a01b03168152602090f35b356001600160a01b038116810361060d5790565b90601f8019910116810190811067ffffffffffffffff821117610a7257604052565b634e487b7160e01b5f52604160045260245ffd5b67ffffffffffffffff8111610a725760051b60200190565b9291610aa982610a86565b93610ab76040519586610a50565b602085848152019260051b810191821161060d57915b818310610ad957505050565b82356001600160a01b038116810361060d57815260209283019201610acd565b8051156109655760200190565b80518210156109655760209160051b010190565b9190820391821161079b57565b91610b3191610bf1565b6040519060208201926001600160601b03199060601b1683526001600160601b03199060601b16603482015260288152610b6c604882610a50565b5190209060405191602083019160ff60f81b83526001600160601b03199060601b16602184015260358301527fa5934690703a592a07e841ca29d5e5c79b5e22ed4749057bb216dc31100be1c0605583015260558252610bcd607583610a50565b905190206001600160a01b031690565b51906001600160701b038216820361060d57565b9091906001600160a01b03808416908216808214610c6d571015610c6857915b906001600160a01b03831615610c2357565b60405162461bcd60e51b815260206004820152601c60248201527f50616e63616b654c6962726172793a205a45524f5f41444452455353000000006044820152606490fd5b610c11565b60405162461bcd60e51b815260206004820152602360248201527f50616e63616b654c6962726172793a204944454e544943414c5f41444452455360448201526253455360e81b6064820152608490fdfea2646970667358221220143e7f5d5561743c524e43e6efc13ab134aff6e96db0a61f209786ea197b1bba64736f6c634300081d0033",
    "sourcePath": "b:/Crypto/EthereumProjects/blocksniper-test/contracts/Swapper.sol",
    "compiler": {
        "name": "solc",
        "version": "0.8.29+commit.ab55807c"
    },
    "functionHashes": {
        "WETH()": "ad5c4648",
        "factory()": "c45a0155",
        "swapETHForExactTokens(uint256,address[],address,uint256)": "fb3bdb41"
    },
    "gasEstimates": {
        "creation": {
            "codeDepositCost": "663200",
            "executionCost": "infinite",
            "totalCost": "infinite"
        },
        "external": {
            "WETH()": "infinite",
            "factory()": "infinite",
            "swapETHForExactTokens(uint256,address[],address,uint256)": "infinite"
        },
        "internal": {
            "_swap(uint256[] memory,address[] memory,address)": "infinite"
        }
    }
}